:080000000C941A010C9400009D
:100008000C9400000C9400000C9400000C94000068
:100018000C9400000C9400000C9400000C94000058
:100028000C9400000C9400000C9400000C94000048
:100038000C9400000C9400000C9400000C94000038
:100048000C9400000C9400000C9400001027E803A6
:1000580064000A0001000010000110000100050002
:100068000000000000000000000057656C636F6D21
:100078006500257500523D00206D6963726F6F68D9
:100088006D002020202052616E67652030002020FE
:10009800202052616E6765203100206D696C6C69A3
:1000A8006F686D00206F686D0020202020202020C0
:1000B800202052616E6765203200202020202020F9
:1000C80020202052616E6765203300206B6F686DB9
:1000D8000020202020202020202052616E676520EB
:1000E800340020202020202020202052616E6765C7
:1000F80020350020202020202020202052616E67FB
:1001080065203600204D6F686D00202020202020BB
:1001180020202052616E6765203700000A00000029
:1001280000000000000000000000000000000000C7
:10013800000000000000000000000000000080C077
:1001480001002D4E414E00494E4600000800600255
:100158007200030068027D000A006B0280000C0038
:1001680075028A00030081027D000A008402800073
:100178000C008E028A0003009A027D000A009D028C
:1001880080000C00A70296000300B3027D000A005D
:10019800B602A2000C00C00296000300CC027D004B
:1001A8000500CF02AC001100D402B1000300E50243
:1001B8007D000500E802AC001100ED02C20003005A
:1001C800FE027D0006000103D30011000703D900D9
:1001D800030018037D0006001B03D3001100210350
:1001E800EA00030032037D0006003503D300110046
:1001F8003B03FB0003004C037D0006004F03D300C4
:1002080011005503FB00030066037D000600690327
:100218000C0111006F031201010080032401020088
:100228008803460101008C0348010000F894EE277A
:10023800ECBBF1E0F5BFE5BF8DE0A2E0BB27ED9395
:100248008A95E9F780E098E0A0E6ED930197E9F751
:10025800E4E5F1E085919591009761F0A591B5915C
:1002680005901590BF01F00105900D920197E1F7F7
:10027800FB01F0CFEFE5EDBFE8E0EEBFC0E6D2E06E
:100288000C9496011A931A2FE12FE064E7B98BE1D9
:100298008A95F1F7369A349BFECF349AE4B1F5B1DA
:1002A80019910895D8D56497E0E0E88BE98BEA8B3B
:1002B800EB8B5CD500E010E020E030E0E88DF98DB4
:1002C8006A8D7B8D309760407040B1F030D4B6D5E0
:1002D80037D42DD48FD5E88FF98F6A8F7B8FF901AA
:1002E800DE011496EA0FFB1FAC89A0832F5F3F4FF6
:1002F800A4E1B0E043D7E2CFF90131978F01112390
:1003080072F0DE011496A00FB11FEC91E05DAE2FE4
:10031800A8D3A4E1B0E032D701501040F0CF2DD5DA
:100328006C960895A4978CE068E170E0E6E6F0E04A
:1003380029D5E4E0EABBE2E0EBBBE0E0E7BBE8BBE1
:10034800E4BBE5BBE1E0E1BBE0E0E2BBEFEFE7BB2C
:10035800E0E0E3BFE2BFECBFEFBDEEBDEDBDECBD3D
:10036800E7BDE6BDEBBDEABDE9BDE8BDE2BDE5BD63
:10037800E4BDE3BDE9BFE5BFE4BFEAB9E0E8E8B939
:10038800E0E4E7B9E6E8E6B9E0E0E0BFEDB9E6BFEA
:10039800A0E189D3E0E0E8BB5AD3A0E6B2E0D5D328
:1003A800E0E0F0E563EC77E4CBD351D3E1E0E8BBE0
:1003B800ACE2B1E0CED3A130E0E0BE07E0E08E07CA
:1003C800E0E09E0748F011D4A530E0E0BE07E0E089
:1003D8008E07E0E09E0708F016C0DE01B6D30AD407
:1003E8007F936F93FF93EF9310D4AF91BF918F9149
:1003F8009F9117D4A8E6B2E01DD4ABE6B2E044D38F
:10040800A5E7B2E01DD4F1D3A430E0E0BE07E0E0F8
:100418008E07E0E09E0748F0E8D3A13DE7E0BE077D
:10042800E0E08E07E0E09E0708F01DC0DE018DD3F6
:10043800E1D37F936F93FF93EF93E7D3AF91BF918E
:100448008F919F91EED3A1E8B2E0FED3EE0FFF1F8C
:10045800661F771FDF01CB0125DFA4E8B2E014D3C4
:10046800AEE8B2E0EDD3F6D3E2E0FAD310978040DD
:10047800904010F0F9D308F01CC0FFD37F936F931E
:10048800FF93EF93C2D3AF91BF918F919F91C9D33F
:10049800AAE9B2E0D9D3A0EBB4E080E090E08AD436
:1004A800DF01CB01FFDEADE9B2E0EED2A7EAB2E0B0
:1004B800C7D3DAD310F0E7D308F015C0DED37F93A3
:1004C8006F93FF93EF93A1D3AF91BF918F919F91BA
:1004D800A8D3A3EBB2E0B8D3DFD3A6EBB2E0D4D273
:1004E800A0ECB2E0ADD3E2D3E4E0BAD3A43FE1E0BC
:1004F800BE07E0E08E07E0E09E0748F076D3A5301F
:10050800E0E1BE07E0E08E07E0E09E0708F015C0D6
:10051800B4D37F936F93FF93EF9377D3AF91BF914A
:100528008F919F917ED3ACECB2E08ED3B5D3AFEC74
:10053800B2E0AAD2A4EDB2E083D38CD3E8E090D3A2
:10054800BBD310F0A0D308F014C097D37F936F9358
:10055800FF93EF935AD3AF91BF918F919F9161D33E
:10056800A5EEB2E067D3A8EEB2E08ED2ADEEB2E06F
:1005780067D3AAD3E0E174D39FD310F084D308F0F3
:1005880014C07BD37F936F93FF93EF933ED3AF91C8
:10059800BF918F919F9145D3AEEFB2E04BD3A1E0CD
:1005A800B3E072D2A7E0B3E04BD380D3E0E258D3F4
:1005B80083D348F01AD3A13AEFE0BE07E0E08E07F4
:1005C800E0E09E0708F014C058D37F936F93FF9321
:1005D800EF931BD3AF91BF918F919F9122D3A8E145
:1005E800B3E028D3ABE1B3E04FD2A1E2B3E028D324
:1005F80031D3E0E435D3AC32E1E0BE07E0E08E076A
:10060800E0E09E0710F066D308F01AC036D37F9357
:100618006F93FF93EF93F9D2AF91BF918F919F9111
:1006280000D3A2E3B3E010D391D4A3E3B3E383E709
:100638009FE359D3A5E3B3E027D2ABE3B3E000D3FC
:1006480049D310F055D308F01AC017D37F936F938E
:10065800FF93EF93DAD2AF91BF918F919F91E1D23F
:10066800ACE4B3E0F1D272D4A5E8BBEE81E89FE335
:100678003AD3AFE4B3E008D2A5E5B3E0E1D224D39E
:10068800E0E8EED2A83CE0E0BE07E0E08E07E0E05C
:100698009E0710F02DD308F01AC0EFD27F936F9306
:1006A800FF93EF93B2D2AF91BF918F919F91B9D23F
:1006B800A6E6B3E0C9D24AD4A6E6B6E686E69FE344
:1006C80012D3A9E6B3E0E0D1AFE6B3E0B9D264CE85
:1006D800FFCF4AD39D015E811296ED91FC9111974F
:1006E8003097E9F0D9010DD38F01309759F00230D6
:1006F800E0E01E0760F0F80131978F01D9011496E8
:10070800ED93FC93D901129601D331975083D90107
:10071800ED91FC911197FF230AF0F8D205C0D90199
:10072800EFEFFFEFED93FC9326D327960895BA9346
:10073800AA93269719D310E0AC85BD85E0E0F0E0D8
:10074800ED93FC93EA89FB893196EA8BFB8B319711
:10075800E4912E2FE03009F408C1E12FE03031F4A4
:10076800253211F411E001C0D7D2FEC0E130A1F466
:10077800253211F4D1D2F7C012E040E000E02D326A
:1007880011F401E0F1C02B3211F44BE2EDC020323C
:1007980011F440E2E9C002C0E23039F450E013E05D
:1007A800203311F40068E0C003C0E33009F0DCC076
:1007B800203310F02A3308F007C0AAE05A9F502DC2
:1007C800E22FE0535E0FD0C0E22FE33639F4ABD20C
:1007D800E889F989A481AA93ACD2C5C0E33729F482
:1007E800A2D2ADD28BD11E2F07C0E03749F49BD2DD
:1007F800A6D290D11E2F086002600F7730E037C074
:10080800E43611F0E93611F4046002C0E53731F43A
:10081800E4E5F0E0EE83FF8315E00CC0E83511F461
:10082800086003C0E83709F09EC0EEE5F0E0EE830B
:10083800FF8314E002FF15C076D2A889B9891496FF
:10084800ED91FD91EA87FB87AB85AA2322F4A6D216
:10085800EA87FB874DE2403011F01F5F01C00B7F34
:1008680006C061D2A889B9894CD2EA87FB8700FD06
:1008780010C0151770F407FF08C002FF04C00B7FF3
:10088800242F115001C020E301C020E245D251506D
:10089800F0CF312F01FF16C0303099F003FF06C0AA
:1008A800EE81FF812591EE83FF8305C0AE81BF8174
:1008B8002D91AE83BF8330D2503009F05150315062
:1008C800EBCF48C020E3EE81FF81BCD2E887F987EF
:1008D800EE81FF813296EE83FF83E885F985AA854C
:1008E800BB85AE17BF0750F02F5FA885B985EA858D
:1008F800FB85EA1BFB0BEA87FB87EFCF2A3328F03F
:1009080003FF02C0295F01C0295D04FD19C021331E
:1009180020F4A885B985119709F409C0531710F078
:1009280000FF01C011C020E207FF0AC020E30061F8
:1009380002FF06C00B7F4A93FCD1503009F051509A
:10094800EBD1503009F051503150A885B985129734
:1009580008F0B8CF00FF07C0503029F05150E0E24E
:10096800EA93E7D1F9CF10E0EDCEAC85BD85ED91E6
:10097800FD9101D264960895FF92F82E2697F4D13E
:10098800FE010024EF0DF01D46855785042E052A2B
:1009980019F4EFEFFFEF23C0DE0118960024AF0D26
:1009A800B01D8D0148875987E0E0EA87EB87DE01B3
:1009B8001C960024AF0DB01DED91FD91FA93EA93BA
:1009C8001A930A93EDE6F3E0FA93EA93DE011C9694
:1009D800AEDE9F01A885B985E0E0EC93F901CBD1A3
:1009E8002C96FF9008951A931A2FEBB3EF70AE2F41
:1009F800E12FE07FEA2BEBBB8DE08A95F1F7DB9ADC
:100A08008DE08A95F1F7DB988DE08A95F1F774C04F
:100A1800AA93A881E8DFE881E295E883A881E3DF6B
:100A280085E88A95F1F7219608951A930A931A2F63
:100A38000A81E12FF0E0E857FC4FE081E00FAE2F8C
:100A4800E7DF502E412E1981088123960895A2E0F0
:100A580080D1ACE0DDDFA1E07CD1E0E04E2E5E2E5F
:100A680008951A931A2F1A3011F0571438F0E0E04D
:100A7800EA934394A42DD9DF1A30F1F15394D99A0B
:100A8800A12FC6DFD99838C071D19D01D9012F5F38
:100A98003F4FEC911E2FE03019F0A12FE2DFF6CF87
:100AA8006CD1249608951A931A2FEAB3E06FEABB23
:100AB800D39AD19AD29ADB98D998DA98712EE12FE5
:100AC800E058E0938A03E12FE054E0938B03A4E11C
:100AD800B0E054D342D141D140D1A0E284DF88ECC8
:100AE80090E00197F1F7A8E293DFA4E091DFA5E891
:100AF8008FDFA6E08DDFABDF19910895BA93AA9333
:100B0800A991B991EE27FF276D91662311F03196CF
:100B1800FBCF0895BA93AA93AA27BB27E991F99125
:100B28000590002011F01196FBCFFD010895A88DC6
:100B3800B98D8A8D9B8DEAE0F0E060E070E0089561
:100B4800EC8BFD8B6E8B7F8B08959EDFACE2B1E062
:100B580015C314D3A0E096DB66277727F9D1EC8F6D
:100B6800FD8F6E8F7F8FAC8DBD8D8E8D9F8DE0E05C
:100B7800F0E46CE975E470D2DF01CB01E0E0F0E06D
:100B880060E874E4B7D2DE019096A9D1ED93FD93A5
:100B98006D937C93AC8DBD8D8E8D9F8DE0E0F0E0E4
:100BA80060EA70E459D2DF01CB01E0E0F0E060E8F0
:100BB80074E4A0D2EC8FFD8F6E8F7F8FA4E6B0E037
:100BC800DDD2FE01FA93EA93EAE7F0E0FA93EA93BA
:100BD800ECA1FDA16EA17FA139D184E0CDDE2896DC
:100BE800A8A1B9A18AA19BA10895A8A1B9A18AA188
:100BF8009BA108952CDFEC8DFD8D6E8D7F8DAC89CA
:100C0800BD898E899F8928D20895EC8DFD8D6E8DC2
:100C18007F8DA88DB98D8A8D9B8D22D126D1CBD180
:100C2800089568D2DE0150965AD1ED93FD936D93E5
:100C38007C93089529DFA889B9898A899B8932CB51
:100C480023DFA8EBBBE09AC21FDFE889F9896A892C
:100C58007B890895E0E0F0E06AE774E471DFF7CE9D
:100C6800E8BBA4E6B0E075CFC0DFA536E0E0BE077C
:100C7800E0E08E07E0E09E070895DE0105DFA8ECBE
:100C8800B0E07CD2B7CFB1DFA539E1E1BE07E0E043
:100C98008E07E0E09E07089559D1ADECBCEC8CE8D6
:100CA8009FE3DAD11CD1DF01CB01FCCAE0E0F0E020
:100CB80068EC72E445DFCBCEA039E1E0BE07E0E0A6
:100CC8008E07E0E09E070895E0E0F0E060E271E45E
:100CD80037DFBDCE8ADFA93BEBE0BE07E0E08E0739
:100CE800E0E09E070895B8D1FAD0DF01CB01DACA57
:100CF8007CDFA532E3E1BE07E0E08E07E0E09E0777
:100D080008951496ED91FC9111970895ED91FD9138
:100D18003196FE93EE9308952A93AD85BE85EF85AF
:100D2800F88909950895E889F9893497E88BF98B4A
:100D38000895AD85BE85EF85F88909950895A88938
:100D4800B9891496ED91FD91EE83FF83AE81BF8141
:100D580008955EDEA3E0B0E011C2A0E344DE88ECB3
:100D680090E00197F1F708955A934A933A932A939A
:100D78001A930A9308955D814C813B812A811981D8
:100D880008810895AF93BF93DB01AC0FBD1F059099
:100D98000D928A95E1F7BF91AF910895F195E1958C
:100DA800F0400895F09560957095E195FF4F6F4F6D
:100DB8007F4F08957A9F702D6B9F700DF89F700D6F
:100DC800E99F700D6A9F602D710DFB9F600D711D6D
:100DD800E89F600D711D8827FA9FF02D610D781F1F
:100DE800EB9FF00D611D781FEA9FE02DF10D681F44
:100DF800781F08953F934F935F9300241124A00117
:100E080030E2AA0FBB1F881F991F001C111C441F2A
:100E1800551F0E1A1F0A460B570B28F40E0E1F1EDD
:100E2800461F571F01C0A1603A9559F7FD01BC0143
:100E3800D001CA015F914F913F910895DBDFFD0119
:100E4800BC0108950590F491E02D08957A936A9372
:100E5800FA93EA9308959A938A93BA93AA93089572
:100E6800689401C0E89401D074D0182E862F612DA3
:100E7800192E972F712D1B2EBF2FF12D1A2EAE2F45
:100E8800E12D0895552342F4503811F4E0FF04C0D1
:100E98003196691F791F6BF050E8572711F45F935B
:100EA800CAC05F3F31F0660F000C57956795752FE4
:100EB80008955F9300200AF0C9C0C2C050E8192EF7
:100EC8001522880F991F9527550F879550E8072EEB
:100ED8000522660F771F7527550F67950895689443
:100EE80001C0E8945F93F2DF703818F07F3F08F490
:100EF800A2C056E1571BAAF4519558300EF4593048
:100F080030F0EFEFFFEF6FEF7FE777F91AC0772741
:100F18005523B9F0EE0FFF1F661F771F5A95D1F7BB
:100F280010C07727583028F0EF2FF62F672F58502A
:100F3800F9CF552331F076956795F795E7955A954A
:100F4800D1F700200AF42EDF5F910895689401C05C
:100F5800E894309760407040B1F0002426F0772381
:100F680012F400941FDF172E7EE1112032F07A95DB
:100F7800EE0FFF1F661F111CF9CFEF2FF62F612D03
:100F88005F938ADF5F9108954F93AF01FD01DA0106
:100F9800AB01BC01CA01402D012C142E4F910895BC
:100FA800EA0FFB1F681F0895E095F0956095EF5FC5
:100FB800FF4F6F4F08955F9381DF903849F150E8F4
:100FC8001526703821F1572F591B2BF112F4DCDF4D
:100FD800FACF583118F0AA27BB278827583028F0AD
:100FE800AB2FB82F88275850F9CF552329F086956D
:100FF800B795A7955A95D9F7502D512572F0D0DF9E
:1010080038F46795F795E795739513F41FC0BCDF1F
:1010180043DF5F910895D8F7FBCFEA1BFB0B680B02
:1010280051F010F40094C0DF662392F3EE0FFF1F17
:10103800661F7A95CBF7EE27FF27BF015F910895CA
:10104800EFEFFFEF6FE77FEF5F910895EFEFFFEFAF
:101058006FE77FE75F9108955F9330DF703859F34A
:10106800903849F301240894791F23F424F30020CD
:101078003AF3ECCF0F921F932F933F934F9311277F
:1010880022279927689FA0018F9F302D410D591F56
:101098006B9F300D411D591F8E9F27D0BF9F25D0B4
:1010A8006A9F23D0BE9F1DD0AF9F1BD0AE9F110D4E
:1010B800291F391F491F591FE32FF42F652F522F5E
:1010C8004F913F912F911F910F9066232AF0550F52
:1010D800EE1FFF1F661F02C073954BF2D3DE5F91B0
:1010E8000895100D211D391F02C0200D311D491F03
:1010F800591F08955F93E2DE703821F411200AF435
:101108009FCFA4CF903809F496CF01240894970B69
:101118001BF4D4F30020F3CF792F1F932F933F9321
:101128004F931124112722273327A90190E2AE17E4
:10113800BF078607410730F0AE1BBF0B860B410B7C
:10114800089401C08894551F221F331F111CAA1F21
:10115800BB1F881F441F9A9551F7F901612D4F91C4
:101168003F912F911F91662332F0550FEE1FFF1FFD
:10117800661F7A954BF286DE5F910895109639F0D6
:10118800A89580ED97E00197F1F71197C9F70895B1
:00000001FF
